:020000040800F2
:1000000000500020F92300084504000847040008B8
:10001000490400084B0400084D04000800000000DB
:1000200000000000000000000000000001220008A5
:100030004F04000800000000A1220008510400083D
:1000400041240008412400084124000841240008FC
:1000500041240008412400084124000841240008EC
:1000600041240008412400084124000841240008DC
:1000700041240008412400084124000841240008CC
:1000800041240008412400084124000841240008BC
:1000900041240008412400084124000841240008AC
:1000A000412400084124000841240008412400089C
:1000B000412400084124000841240008412400088C
:1000C000412400084124000841240008412400087C
:1000D000412400084124000841240008412400086C
:1000E00067040008412400084124000800000000C3
:1000F0000000000000000000000000000000000000
:0C01000000000000000000005FF808F1A3
:100110000348044B834202D0034B03B11847704796
:100120001000002010000020000000000548064BD1
:100130001B1AD90F01EBA301491002D0034B03B1E5
:100140001847704710000020100000200000000039
:1001500010B5064C237843B9FFF7DAFF044B13B10F
:100160000448AFF300800123237010BD100000206D
:10017000000000009C24000808B5054B1BB1054990
:100180000548AFF30080BDE80840FFF7CFBF00BFD0
:1001900000000000140000209C24000870B588B006
:1001A00000240494059406940794314B9A6942F014
:1001B00010029A619A6902F010020092009A9A69FC
:1001C00042F020029A619A6902F020020192019A9B
:1001D0009A6942F004029A619A6902F0040202925A
:1001E000029A9A6942F008029A619B6903F0080337
:1001F0000393039B1F4D22462021284601F07EF8E1
:100200004FF4005304931C4B059306941B4E04A912
:10021000304600F061FF032304930594069404A97B
:10022000304600F059FF122304930594069404A964
:10023000284600F051FF20230493012605960694DA
:100240000223079304A9284600F046FF049605946C
:10025000069404A90A4800F03FFF22460521282001
:1002600001F074F8282001F0A9F808B070BD00BFB3
:100270000010024000080140000011100010014071
:10028000000C014008B5642001F058FEFBE772B68F
:10029000FEE7000000B585B00023019302930393AD
:1002A0000F48104A02608360037303754FF46022A5
:1002B000C26143600123036100F06EFA60B900235C
:1002C000019301220292039301A9054800F098F9D5
:1002D00020B905B05DF804FBFFF7D9FFFFF7D7FFA2
:1002E000300000200024014008B50A480A4B036092
:1002F0000A4B436000238360C3604FF48042026175
:1003000043618361C361036201F07AF800B908BDFB
:10031000FFF7BDFF6000002000540040A0860100F0
:1003200008B50A480A4B03604FF4E13343600023E9
:100330008360C36003610C2242618361C36101F089
:1003400087F900B908BDFFF7A2FF00BFB400002085
:100350000044004000B595B0282200210DEB0200BA
:1003600002F094F8002305930693079308930993EA
:10037000019302930393049301230A934FF4A02261
:100380000B920E93022311934FF4803312934FF488
:10039000E01313930AA800F0F7FAC8B90F230593E6
:1003A00002210691002307934FF48062089209937B
:1003B00005A800F029FD68B9022301934FF400431A
:1003C000039301A800F0FCFD30B915B05DF804FB03
:1003D000FFF75DFFFFF75BFFFFF759FF00B589B03F
:1003E00000F084FAFFF7B6FFFFF7D8FEFFF752FFE1
:1003F000FFF77AFFFFF794FF0DF1040C094C0FCCC7
:10040000ACE80F0094E807008CE80700002101A881
:1004100001F061FD044B186001F058FD642000F00C
:1004200089FAFBE7B42400082C000020034B03608A
:10043000034B0B6080231360704700BFF80200205D
:10044000F8000020FEE7FEE7FEE7FEE7FEE7704764
:1004500008B500F05DFA01F023FD012800D108BDC8
:1004600001F040FFFBE708B54FF4005000F04EFFED
:1004700008BD000000B583B0114B9A6942F001023B
:100480009A619A6902F001020092009ADA6942F0D8
:100490008052DA61DB6903F080530193019B0022F3
:1004A0000F216FF0010000F051FF064A536823F05E
:1004B000E06343F00073536003B05DF804FB00BFDA
:1004C000001002400000014000B587B000230293F5
:1004D0000393049305930268114B9A4202D007B02C
:1004E0005DF804FB03F56C439A6942F400729A616B
:1004F0009A6902F400720092009A9A6942F004022A
:100500009A619B6903F004030193019B0123029309
:100510000323039302A9034800F0DEFDDFE700BFD9
:10052000002401400008014010B586B0002302936A
:100530000393049305930268154B9A4201D006B0C9
:1005400010BD144CA36943F00803A361A36903F031
:1005500008030093009B4FF440730293122303930C
:100560000323059302A90C4800F0B6FD0B4A53681B
:1005700043F0E06343F002035360E36943F4001384
:10058000E361E36903F400130193019BD7E700BF24
:100590000054004000100240000C014000000140E7
:1005A00000B587B000230293039304930593026878
:1005B000114B9A4202D007B05DF804FB03F5E63315
:1005C000DA6942F40032DA61DA6902F40032009248
:1005D000009A9A6942F004029A619B6903F004034D
:1005E0000193019B0C23029302230393059302A919
:1005F000024800F071FDDEE70044004000080140C1
:1006000030B482B00022019290F82420012A00F038
:100610008F800346012280F824204A68062A2DD8BC
:100620000468606B02EB8202053A4FF01F0C0CFA73
:1006300002FC20EA0C000D6805FA02F20243626334
:100640000A68092A38D91C68E06802EB42021E3A9F
:100650004FF0070C0CFA02FC20EA0C008D6805FA3A
:1006600002F20243E2600A68103A012A34D90020FB
:10067000002283F8242002B030BC70470C2A0DD829
:100680000568286B02EB8202233A1F24944020EA7B
:1006900004000C68944020432863D1E70568E86AA9
:1006A00002EB8202413A1F24944020EA04000C68C5
:1006B00094402043E862C3E71C68206902EB4202D1
:1006C0004FF0070C0CFA02FC20EA0C008D6805FACA
:1006D00002F202432261C6E71A681648824205D038
:1006E0009A6A42F020029A620120C1E7906810F4F1
:1006F000000F1BD1906840F4000090600A68102A37
:1007000001D00020B4E70C4A12680C49A1FB021288
:10071000920C02EB82025200019202E0019A013A2D
:100720000192019A002AF9D10020A1E700209FE759
:100730000220A0E7002401400800002083DE1B43C4
:1007400038B503689A6812F0010F01D1002038BD56
:1007500004469A6822F001029A6000F0E5F8054626
:1007600023689B6813F0010F13D000F0DDF8431BE2
:10077000022BF5D923689B6813F0010FF0D0A36A10
:1007800043F01003A362E36A43F00103E362012034
:10079000DDE70020DBE7000000287BD070B50446D1
:1007A000836A002B4DD02046FFF7CAFFA36A13F0DF
:1007B000100369D1002867D1A26A22F4885222F07E
:1007C000020242F00202A2626268E1690A43217BEE
:1007D00042EA4102A568B5F5807F02D0012D36D0EE
:1007E0001D46267D012E35D02668716821F46941A9
:1007F000294371602568AE68274931401143A960DB
:10080000A168B1F5807F01D0012902D12369013BA4
:100810001B052568E96A21F470010B43EB6223682C
:1008200099681E4B0B409A4225D0A36A23F012030D
:1008300043F01003A362E36A43F00103E362012083
:1008400027E0C36280F82430FFF73EFEABE74FF4A9
:100850008075C6E731B9A169013945EA413141F4F2
:100860000065C1E7A16A41F02001A162E16A41F09F
:100870000101E162B8E70023E362A36A23F0030306
:1008800043F00103A36204E0A36A43F01003A362F0
:10089000012070BD01207047FDF7E1FFFE0E1FFF34
:1008A00010B504460E4B1A784FF47A73B3FBF2F38B
:1008B0000C4A1068B0FBF3F000F08EFD68B90F2C05
:1008C00001D901200AE0002221464FF0FF3000F05C
:1008D0003DFD054B1C60002000E0012010BD00BF65
:1008E00000000020080000200400002008B5074A8E
:1008F000136843F010031360032000F015FD0F2070
:10090000FFF7CEFFFFF7B6FD002008BD0020024034
:10091000034A1168034B1B780B441360704700BFF8
:100920004C03002000000020014B1868704700BFF6
:100930004C03002038B50446FFF7F6FF0546B4F136
:10094000FF3F02D0044B1B781C44FFF7EDFF401B18
:10095000A042FAD338BD00BF0000002082B0084B8F
:100960001B68084AA2FB03235B0A00FB03F3019305
:1009700000BF019B5A1E0192002BF9D102B07047B3
:1009800008000020D34D6210002800F0F18170B5FE
:1009900082B00446036813F0010F2CD0994B5B68BA
:1009A00003F00C03042B1DD0964B5B6803F00C0383
:1009B000082B12D06368B3F5803F41D0002B55D18E
:1009C00003F1804303F504331A6822F480321A607D
:1009D0001A6822F480221A6037E08A4B5B6813F4AD
:1009E000803FE7D0874B1B6813F4003F03D0636858
:1009F000002B00F0BF81236813F0020F75D0814BEC
:100A00005B6813F00C0F5FD07E4B5B6803F00C0348
:100A1000082B54D02369002B00F08A807A4B0122E6
:100A20001A60FFF781FF0546764B1B6813F0020F33
:100A300075D1FFF779FF401B0228F5D903209EE10D
:100A4000704A136843F480331360636843B3FFF75D
:100A50006BFF05466B4B1B6813F4003FCBD1FFF7D0
:100A600063FF401B6428F5D9032088E1B3F5A02F6C
:100A700009D0644B1A6822F480321A601A6822F492
:100A800080221A60E1E703F18043A3F53C331A6842
:100A900042F480221A601A6842F480321A60D4E765
:100AA000FFF742FF0546574B1B6813F4003FA2D0E7
:100AB000FFF73AFF401B6428F5D903205FE1514B53
:100AC0005B6813F4803FA5D14E4B1B6813F0020FF7
:100AD00003D02369012B40F04F814A4A136823F069
:100AE000F803616943EAC1031360236813F0080F38
:100AF00033D0A369002B5CD0434B0122C3F8802480
:100B0000FFF712FF05463F4B5B6A13F0020F21D13E
:100B1000FFF70AFF401B0228F5D903202FE1394ACD
:100B2000136823F0F803616943EAC1031360DCE74B
:100B3000354B00221A60FFF7F7FE0546314B1B6864
:100B400013F0020FD1D0FFF7EFFE401B0228F5D9BA
:100B5000032014E10120FFF701FF236813F0040FC5
:100B600000F09680274BDB6913F0805F34D1254B72
:100B7000DA6942F08052DA61DB6903F08053019355
:100B8000019B0125214B1B6813F4807F26D0E3686D
:100B9000012B3DD0002B53D103F1804303F50433E7
:100BA0001A6A22F001021A621A6A22F004021A6218
:100BB00033E0154B0022C3F88024FFF7B5FE05464D
:100BC000104B5B6A13F0020FC7D0FFF7ADFE401B5E
:100BD0000228F5D90320D2E00025D3E70B4A136899
:100BE00043F480731360FFF79FFE0646074B1B68B4
:100BF00013F4807FCBD1FFF797FE801B6428F5D9D3
:100C00000320BCE00010024000004242007000409F
:100C10005F4A136A43F001031362E36833B3FFF7DB
:100C200083FE06465A4B1B6A13F0020F2FD1FFF7C3
:100C30007BFE801B41F288339842F3D903209EE06B
:100C4000052B09D0524B1A6A22F001021A621A6A65
:100C500022F004021A62E0E74D4B1A6A42F00402E5
:100C60001A621A6A42F001021A62D6E7FFF75CFEC6
:100C70000646474B1B6A13F0020F08D0FFF754FEDD
:100C8000801B41F288339842F3D9032077E0E5B91D
:100C9000E369002B72D03E4A526802F00C02082A27
:100CA00056D0022B17D03B4B00221A66FFF73CFEB2
:100CB0000446374B1B6813F0007F47D0FFF734FE24
:100CC000001B0228F5D9032059E0314AD36923F0EB
:100CD0008053D361DCE72F4B00221A66FFF724FE16
:100CE00005462B4B1B6813F0007F06D0FFF71CFE58
:100CF000401B0228F5D9032041E0236AB3F5803F69
:100D00001AD023494B6823F47413226A606A0243A1
:100D100013434B601F4B01221A66FFF705FE044682
:100D20001B4B1B6813F0007F0ED1FFF7FDFD001B6E
:100D30000228F5D9032022E0154A536823F4003332
:100D4000A1680B435360DCE7002018E0002016E0A8
:100D5000012B16D00E4B5B6803F48031226A91425E
:100D600011D103F47013626A93420ED1002006E0A1
:100D700001207047012002E0012000E0002002B0C5
:100D800070BD0120FBE70120F9E70120F7E700BF74
:100D9000001002400000424286B0174B0FCB0DF10D
:100DA000180C0CE90F0040F20123ADF80430134B8E
:100DB0005B6803F00C02082A02D0114806B07047A5
:100DC000C3F3834218326A4412F8100C13F4803FC4
:100DD0000DD00A4B5B68C3F3404318336B4413F8E0
:100DE000143C074A02FB00F0B0FBF3F0E6E7054BCA
:100DF00003FB00F0E2E700BFDC2400080010024023
:100E000000127A0000093D00002800F0A08070B5B3
:100E10000D460446524B1B6803F007038B420BD26E
:100E20004F4A136823F007030B431360136803F062
:100E300007038B4240F08D80236813F0020F17D018
:100E400013F0040F04D0474A536843F4E06353603F
:100E5000236813F0080F04D0424A536843F46053E8
:100E60005360404A536823F0F003A1680B4353607A
:100E7000236813F0010F31D06368012B20D0022BBF
:100E800025D0384A126812F0020F64D035494A68FA
:100E900022F0030213434B60FFF746FD0646314B39
:100EA0005B6803F00C036268B3EB820F16D0FFF7A8
:100EB0003BFD801B41F288339842F0D9032045E086
:100EC000284A126812F4003FE0D101203EE0254A92
:100ED000126812F0007FD9D1012037E0204B1B6847
:100EE00003F00703AB420AD91D4A136823F0070336
:100EF0002B431360136803F00703AB422DD1236823
:100F000013F0040F06D0174A536823F4E063E16836
:100F10000B435360236813F0080F07D0114A53683E
:100F200023F46053216943EAC1035360FFF734FFA0
:100F30000C4B5B68C3F303130B4AD35CD8400B4BD9
:100F400018600B4B1868FFF7ABFC002070BD012048
:100F500070470120FAE70120F8E70120F6E700BF1B
:100F60000020024000100240F02400080800002089
:100F700004000020014B1868704700BF08000020E3
:100F800008B5FFF7F7FF044B5B68C3F30223034A7E
:100F9000D35CD84008BD00BF001002400025000807
:100FA00008B5FFF7E7FF044B5B68C3F3C223034AAE
:100FB000D35CD84008BD00BF0010024000250008E7
:100FC00070B582B00446036813F0010F36D03F4B72
:100FD000DB6913F0805F49D13C4BDA6942F0805203
:100FE000DA61DB6903F080530193019B0125384BE3
:100FF0001B6813F4807F3BD0344B1B6A13F440739F
:1010000013D0626802F440729A420ED02F4A136ADB
:1010100023F440702F490126C1F840640026C1F82E
:101020004064106213F0010F36D1284A136A23F48A
:10103000407361680B431362002D3ED1236813F0A7
:10104000020F06D0214A536823F44043A1680B43A2
:101050005360236813F0100F34D01C4A536823F4F4
:101060008003E1680B43536000202CE00025BEE7BD
:10107000174A136843F480731360FFF755FC064664
:10108000134B1B6813F4807FB6D1FFF74DFC801B18
:101090006428F5D9032016E0FFF746FC06460B4B03
:1010A0001B6A13F0020FC0D1FFF73EFC801B41F218
:1010B00088339842F3D9032005E0D36923F08053A5
:1010C000D361BBE7002002B070BD00BF001002403A
:1010D000007000400000424270B582B00024A44677
:1010E000A6E0804DAB4210D007D97F4DAB420CD06B
:1010F00005F58035AB4208D013E0A5F58015AB426D
:1011000003D005F57025AB4207D18B68002B58D072
:10111000012B51D04261082403E0A5F58015AB42B4
:10112000F3D0BEF1FF0F4ED80646BEF1FF0F4CD8EC
:101130004FEA8C0233680F25954023EA050304FA31
:1011400002F2134333604B6813F0805F6ED0674B3D
:101150009A6942F001029A619B6903F001030193CD
:10116000019B4FEA9C02951C614B53F825600CF0E3
:101170000305AD000F23AB4026EA03065D4B984202
:1011800029D003F58063984200F08E8003F58063D8
:10119000984200F08B8003F58063984219D00423B5
:1011A0001AE0CC68BDE7CC680434BAE7CC680834F0
:1011B000B7E7CC680C34B4E702610824B1E7002437
:1011C000AFE70424ADE7061DAFE7ACF108029200DB
:1011D000B0E7032300E00023AB4033430232444D29
:1011E00045F822304B6813F4803F61D0424A1368BF
:1011F00043EA0E0313604B6813F4003F5ED03E4A8F
:10120000536843EA0E0353604B6813F4801F5BD0AE
:10121000394A936843EA0E0393604B6813F4001F46
:1012200058D0354AD36843EA0E03D3600CF1010C61
:101230000B6833FA0CF253D0012202FA0CF203EAE3
:10124000020E32EA0303F1D14B68122B3FF649AF8D
:10125000122B3FF666AF01A555F823F00B110008DD
:10126000A3110008AD110008BF11000823110008E8
:10127000231100082311000823110008231100087E
:10128000231100082311000823110008231100086E
:10129000231100082311000823110008231100085E
:1012A000A7110008B3110008012395E7022393E773
:1012B000114A136823EA0E0313609CE70E4A536831
:1012C00023EA0E0353609FE70B4A936823EA0E0359
:1012D0009360A2E7084AD36823EA0E03D360A5E728
:1012E00002B070BD0000221000003110001002405A
:1012F0000000014000080140000401400AB1016102
:1013000070470904016170477047000008B5054B3C
:101310005B69034200D108BD024B5861FFF7F4FF3F
:10132000F9E700BF00040140074AD36823F4E063F3
:101330001B041B0C000200F4E060034343F0BF6396
:1013400043F40033D360704700ED00E000B5194B63
:10135000DB68C3F30223C3F1070CBCF1040F28BF01
:101360004FF0040C03F1040EBEF1060F18D9033B35
:101370004FF0FF3E0EFA0CFC21EA0C0199400EFAE8
:1013800003FE22EA0E020A4300280BDB1201D2B24E
:1013900000F1604000F5614080F800235DF804FB37
:1013A0000023E5E700F00F001201D2B2024B1A54FD
:1013B000F4E700BF00ED00E014ED00E0002807DBDB
:1013C00000F01F02400901239340024A42F82030F6
:1013D000704700BF00E100E00138B0F1807F0BD220
:1013E0004FF0E0235861054AF02182F823100020D5
:1013F000986107221A6170470120704700ED00E0F4
:10140000002800F0CC8070B5044690F83D30002BE9
:1014100077D0242384F83D302268136823F0010339
:1014200013602268136843F4004313602268136852
:1014300023F400431360FFF7A3FD62685A4B9A42FE
:1014400064D85A4B98428CBF00230123002B40F0F4
:10145000A8805749A1FB00318B0C25686A6822F0EF
:101460003F0242EA91426A6021680A6A22F03F0222
:1014700066684D4DAE424FD8013313430B6221686D
:10148000CA6922F44F4222F0FF026568464B9D4232
:101490004CD8431E6D00B3FBF5F3013340F6FC70EE
:1014A000034278D0C3F30B031A43CA6121680B6867
:1014B00023F0C003E269206A024313430B602168F2
:1014C0008B6823F4034323F0FF032269E06802439F
:1014D00013438B602168CB6823F0FF036269A06926
:1014E00002431343CB602268136843F00103136087
:1014F00000202064202384F83D30206384F83E00DF
:1015000070BD80F83C30FFF70FF882E7294B984216
:101510008CBF0023012399E74FF4967505FB03F375
:10152000254DA5FB03539B090133A6E7A668BEB969
:10153000431E05EB450CB3FBFCF30133C3F30B0374
:10154000B3FA83F35B0943BBC6B9431E05EB4505FC
:10155000B3FBF5F30133C3F30B0343F40043A3E7F9
:10156000431E05EB850C0CEB8C0CB3FBFCF3013339
:10157000C3F30B03B3FA83F35B09E4E7431E05EB04
:10158000850505EB8505B3FBF5F30133C3F30B03C9
:1015900043F4404388E7042386E7012384E70120DE
:1015A00070470120ACE700BFA08601007F841E00C9
:1015B00083DE1B43FF083D00D34D621010B5044687
:1015C0000268136923F44053C1680B4313618368B5
:1015D0000269134342691A430168CB6823F4B0538C
:1015E00023F00C031343CB600268536923F4407368
:1015F00081690B4353610268134B9A4220D0FFF775
:10160000BFFC024602EB820202EB820263689B008F
:10161000B2FBF3F20D48A0FB02314909642303FB3E
:1016200011231B013233A0FB03035B0903F0F0021B
:1016300002EB011203F00F03216813448B6010BD0D
:10164000FFF7AEFC0246DDE7003801401F85EB5195
:1016500058B310B5044690F83D300BB3242384F8FA
:101660003D302268D36823F40053D3602046FFF74F
:10167000A5FF2268136923F490431361226853691C
:1016800023F02A0353612268D36843F40053D360E4
:1016900000202064202384F83D3084F83E3010BDC3
:1016A00080F83C30FEF77CFFD8E701207047704798
:1016B00000F1080343604FF0FF328260C3600361B2
:1016C00000230360704700230361704743684B6049
:1016D0009A688A6051609960086103680133036009
:1016E000704730B40D68B5F1FF3F11D000F1080329
:1016F0001C465B681A68AA42FAD963684B60996015
:101700008C606160086103680133036030BC70471E
:101710000469F2E70369416882688A604168516040
:101720005A68824206D0002202611A68013A1A60A1
:101730001868704782685A60F5E70000084B1B681C
:101740001B6823B9074B4FF0FF321A607047044BF8
:101750001B68DB68DB685A68024B1A60704700BF81
:10176000540300202C0400202DE9F047074698463A
:10177000089DDDF824900A9C266B02F18042013A14
:1017800006EB820626F007064FF0000CBCF10F0FA7
:1017900009D811F80C2004EB0C0383F8342012B1A3
:1017A0000CF1010CF2E7002384F84330062D00D938
:1017B0000625E56265644FF0000AC4F848A0201DC4
:1017C000FFF781FF04F11800FFF77DFF2461C5F1E9
:1017D0000705A5616462C4F84CA084F850A0424695
:1017E0003946304600F0F4FC2060B9F1000F01D01A
:1017F000C9F80040BDE8F08738B5002407E004EBE5
:10180000840293000E481844FFF752FF0134062C5F
:10181000F5D90C4D2846FFF74BFF0B4C2046FFF740
:1018200047FF0A48FFF744FF0948FFF741FF09480F
:10183000FFF73EFF084B1D60084B1C6038BD00BF22
:101840005C03002000040020140400203404002065
:10185000600400204C0400205403002058030020A2
:1018600010B5044600F0DEFC214A13680133136012
:10187000204B1B685BB1204B1B686BB91D4B1B6871
:10188000DA6AE36A9A4207D81A4B1C6004E0194BE3
:101890001C601368012B28D0184A136801331360A9
:1018A000E06A01238340164A11680B43136000EB82
:1018B0008000211D134B03EB8000FFF707FF00F0B2
:1018C000D3FC0D4B1B687BB10A4B1B68DA6AE36AD9
:1018D0009A4209D24FF0E0234FF08052C3F8042D12
:1018E000BFF34F8FBFF36F8F10BDFFF785FFD3E7B7
:1018F000E80300205003002048040020F8030020E3
:10190000FC0300205C03002010B5044690F8513021
:1019100063B1012B11D0022B0ED04FF0500383F393
:101920001188BFF36F8FBFF34F8FFEE7006B00F09E
:10193000E7FB204600F0E4FB10BD00F0E1FBFBE715
:101940000F4B1B68D3B110B500F06CFC0D4BDB687E
:10195000DC68201DFFF7DEFE0B4A1368013B1360B5
:10196000074A1368013B136000F07EFC2046FFF736
:10197000CBFF034B1B68002BE6D110BD704700BFA7
:10198000EC03002060040020E803002008B5FFF706
:10199000D7FF074B1B68012BF9D94FF0E0234FF01D
:1019A0008052C3F8042DBFF34F8FBFF36F8FEEE764
:1019B0005C03002070B504460D461D4B1E681D4B90
:1019C00018680430FFF7A6FE48B91A4B1B68DB6A9B
:1019D00001229A4018490B6823EA02030B60B4F114
:1019E000FF3F0DD03444134B1B685C60A64210D9F6
:1019F000124B18680F4B19680431FFF772FE70BD67
:101A0000002DEFD00B4B196804310D48FFF75EFE37
:101A1000F5E70C4B1868074B19680431FFF761FEB6
:101A2000094B1B68A342EAD9074B1C60E7E700BFDC
:101A30007404002050030020FC0300205803002001
:101A40004C040020540300202C04002030B587B043
:101A50000B9C7CB10C9DB5B154250495049D542D6F
:101A60001AD04FF0500383F31188BFF36F8FBFF389
:101A70004F8FFEE74FF0500383F31188BFF36F8F52
:101A8000BFF34F8FFEE74FF0500383F31188BFF38E
:101A90006F8FBFF34F8FFEE70C9D2C63022485F8F8
:101AA000514000240394029505AC01940A9C0094D3
:101AB000FFF75AFE0C98FFF7D3FE059807B030BD2C
:101AC0002DE9F04385B00746884614461E4690002F
:101AD00000F09EFA00B38146542000F099FA0546C2
:101AE000B0B1C0F83090E5B1002385F851300393D0
:101AF00002950D9B01930C9B009333462246414671
:101B00003846FFF731FE2846FFF7AAFE012005E020
:101B1000484600F0F5FAE6E74FF0FF3005B0BDE8C3
:101B2000F0834FF0FF30F9E710B588B0002405943A
:101B3000069407AA06A905A8FEF778FC059B029360
:101B4000069B019300942346079A0E490E48FFF71F
:101B50007DFF0E4B186090B14FF0500383F3118856
:101B6000BFF36F8FBFF34F8F094B4FF0FF321A60F7
:101B7000084B01221A60084B1C6000F0DDFB08B026
:101B800010BD00BF082500088D190008280400209A
:101B90002C0400204804002074040020024A13682A
:101BA00001331360704700BFF4030020F8B53A4BCF
:101BB0001B68002B64D1394B1D6801351D60C5B908
:101BC000374B1B681B6843B14FF0500383F31188F8
:101BD000BFF36F8FBFF34F8FFEE7314A1168314B70
:101BE000186810601960304A136801331360FFF7FA
:101BF000A5FD2E4B1B68AB4238D900272C4B1B6828
:101C0000DB6A03EB83039A002A4B9B58012B3CD9D8
:101C100001273AE00127224B1B681B6843B3204B86
:101C20001B68DB68DC6863689D4226D3261D30464E
:101C3000FFF770FDA36A1BB104F11800FFF76AFDFE
:101C4000E36A01229A401C49086802430A6003EBD8
:101C500083039A00314617481044FFF737FDE26AC4
:101C6000134B1B68DB6A9A42D4D2D4E70027D2E731
:101C70000E4B4FF0FF321A60C0E70C4A1360BDE70D
:101C80000E4A13680133136000270D4B1B6803B124
:101C900001273846F8BD00BFF4030020740400207B
:101CA0005403002058030020300400202C0400209E
:101CB000500300205C030020FC030020F003002000
:101CC0007804002038B5354B1B6843B94FF05003FA
:101CD00083F31188BFF36F8FBFF34F8FFEE700F0E0
:101CE000A1FA2E4B1A68013A1A601B68002B4FD1DB
:101CF0002B4B1B680BB900244BE00024294B1B68BD
:101D00001BB3284BDB68DC6804F11800FFF702FD09
:101D1000251D2846FFF7FEFCE06A01238340224A86
:101D200011680B43136000EB800029461F4B03EB47
:101D30008000FFF7CBFCE26A1D4B1B68DB6A9A420E
:101D4000DCD31C4B01221A60D8E70CB1FFF7F6FC7C
:101D5000194B1C6884B9174B1C68D4B14FF0E023B1
:101D60004FF08052C3F8042DBFF34F8FBFF36F8F36
:101D700001240EE0013C07D0FFF718FF0028F9D03E
:101D80000C4B01221A60F5E70B4B00221A60E2E7C8
:101D9000002400F069FA204638BD00BFF40300209B
:101DA000E803002034040020FC0300205C03002032
:101DB0005003002078040020F003002010B5A8B1E3
:101DC0000446104B1B6843B14FF0500383F3118856
:101DD000BFF36F8FBFF34F8FFEE7FFF7DFFE0021EA
:101DE0002046FFF7E7FDFFF76DFF48B94FF0E0230E
:101DF0004FF08052C3F8042DBFF34F8FBFF36F8FA6
:101E000010BD00BFF4030020204B1B681BB1204B0A
:101E100001221A6070471E4B00221A601D4B1B687E
:101E2000B3FA83F3DBB2C3F11F0303EB83018A0030
:101E300019498A5842B94FF0500383F31188BFF310
:101E40006F8FBFF34F8FFEE7134903EB83008200D0
:101E50000A4450684068506003EB830C4FEA8C02E0
:101E600008321144884209D003EB83039A000A4BDD
:101E700013445B68DA68094B1A6070474068624631
:101E80009100054A0A445060EEE700BFF4030020C9
:101E900078040020FC0300205C0300205003002095
:101EA000054B1B6833B1054B1B680BB10020704715
:101EB000022070470120704748040020F4030020EE
:101EC000842801D0033070470020704708B5FFF721
:101ED0002BFE002008BD2DE9F04387B00E46446973
:101EE000C4B18569B5B14768D0F80080D0F81090CA
:101EF000B0F90800FFF7E4FF029501940090334623
:101F00004A4641463846FFF7A1FD0590059807B0BF
:101F1000BDE8F083446805680769B0F90800FFF779
:101F2000CFFF05AB019300903346BAB22946204655
:101F3000FFF7C6FD0128E9D00020E8E708B500B9A1
:101F40000120FFF73BFF002008BD0000124A12F0FD
:101F5000070F1ED0D11D21F00701C1F540631344C6
:101F60000A460E480260002141601344083B23F0FA
:101F700007030B48036059601960991A5160136098
:101F8000084B1960084B1960084B4FF000421A606B
:101F900070474FF44063E4E7800400208C10002079
:101FA0007C04002088100020841000208010002075
:101FB000154B1A461B688342FBD3516802EB010C98
:101FC000844509D0416800EB010C634509D00360EA
:101FD000904218D01060704740680144516010462C
:101FE000F0E710B4094C2468A3420AD05B68194496
:101FF000416013681B680360904200D0106010BC01
:1020000070470460F8E770478C1000207C040020C3
:1020100070B50546FFF7C2FD344B1B68A3B1344BC6
:102020001B681D424AD135B1083515F0070F02D0A3
:1020300025F007050835002D42D02E4B1B68AB421A
:102040004DD32D4A146804E0FFF780FFE7E72246EE
:102050001C466368AB4202D22368002BF7D1234BA6
:102060001B68A3423DD01668083623681360636876
:102070005B1B102B10D9601910F0070F08D04FF020
:10208000500383F31188BFF36F8FBFF34F8FFEE7C9
:1020900043606560FFF78CFF626816490B689B1A06
:1020A0000B60164909688B4201D214490B60104B32
:1020B0001B68134363600023236002E0002600E0F6
:1020C0000026FFF7FFFD16F0070F0CD04FF050036E
:1020D00083F31188BFF36F8FBFF34F8FFEE70026A6
:1020E000EFE70026EDE7304670BD00BF7C0400201E
:1020F00080100020841000208C1000208810002008
:1021000080B338B50446A0F1080550F8043C164ADF
:102110001268134208D14FF0500383F31188BFF3C4
:102120006F8FBFF34F8FFEE750F8081C41B14FF09F
:10213000500383F31188BFF36F8FBFF34F8FFEE718
:1021400023EA020340F8043CFFF728FD54F8041C7E
:10215000064A13680B4413602846FFF729FFFFF770
:10216000B1FD38BD704700BF8010002084100020F2
:1021700082B0002301930D4B1B68B3F1FF3F08D0E1
:102180004FF0500383F31188BFF36F8FBFF34F8F6E
:10219000FEE74FF0500383F31188BFF36F8FBFF357
:1021A0004F8F019B002BFCD002B070470C00002029
:1021B00006480068006880F3088862B661B6BFF31D
:1021C0004F8FBFF36F8F00DF00BF000008ED00E00E
:1021D0004FF0807340F8043C21F0010140F8081CE6
:1021E000034B40F80C3C40F8202C4038704700BFAF
:1021F0007121000800000000000000000000000045
:10220000074B19680868B0E8F00F80F30988BFF33E
:102210006F8F4FF0000080F311884EF00D0E704765
:10222000500300204FF0500383F31188BFF36F8FEA
:10223000BFF34F8F0B4A136801331360012B00D09B
:1022400070474FF0E023D3F8043D13F0FF0FF7D0B1
:102250004FF0500383F31188BFF36F8FBFF34F8F9D
:10226000FEE700BF0C000020094B1B6843B94FF08C
:10227000500383F31188BFF36F8FBFF34F8FFEE7D7
:10228000013B034A13600BB983F31188704700BF09
:102290000C00002000000000000000000000000012
:1022A000EFF30980BFF36F8F0D4B1A6820E9F00F31
:1022B00010602DE908404FF0500080F31188FFF7BF
:1022C000A3FD4FF0000080F31188BDE808401968B5
:1022D0000868B0E8F00F80F30988BFF36F8F70478C
:1022E0005003002008B54FF0500383F31188BFF36B
:1022F0006F8FBFF34F8FFFF759FC28B14FF0E023EA
:102300004FF08052C3F8042D002383F3118808BDD9
:102310004FF0E022002313619361054B1B680549D0
:10232000A1FB03139B09013B536107231361704712
:1023300008000020D34D621010B582B02A4B1A78E5
:10234000D2B20192FF221A701B78DBB28DF80330F3
:102350009DF8033003F05003244A1370244B0722E6
:102360001A6009E0224A1368013B13609DF80330AC
:102370005B00DBB28DF803309DF8033013F0800F63
:10238000F0D11B4B1B68032B08D04FF0500383F395
:102390001188BFF36F8FBFF34F8FFEE71B02144A04
:1023A000136003F4E0631360019BDBB20E4A137009
:1023B0004FF0E023D3F8202D42F47002C3F8202D13
:1023C000D3F8202D42F07042C3F8202DFFF7A0FF74
:1023D0000024084B1C60FFF7EBFEFFF715FDFFF72D
:1023E000C7FE204602B010BD00E400E094100020BB
:1023F000981000200C0000200C480D490D4A0023C5
:1024000002E0D458C4500433C4188C42F9D30A4AA9
:102410000A4C002301E013600432A242FBD3FFF711
:1024200046F900F00FF8FDF7D9FF704700000020D3
:102430001000002018250008100000209C1000202B
:10244000FEE7000070B500260C4D0D4C641BA41077
:10245000A64209D100F022F800260A4D0A4C641B5E
:10246000A410A64205D170BD55F8043B984701362B
:10247000EEE755F8043B98470136F2E710250008CF
:102480001025000810250008142500080346024402
:10249000934200D1704703F8011BF9E7F8B500BF7C
:1024A000F8BC08BC9E467047F8B500BFF8BC08BC35
:0424B0009E4670478D
:1024B400D02400088502000800000000000000008D
:1024C40080000000000000000000000064656661F8
:1024D400756C745461736B000203040506070809E4
:1024E4000A0B0C0D0E0F101000000000000000007D
:1024F40000000000010203040607080900000000B0
:0C2504000102030449444C4500000000A3
:042510007901000845
:042514005101000869
:1025180001000000100000000024F400AAAAAAAAE2
:04000005080023F9D3
:00000001FF
